{
  "contractName": "Diary",
  "abi": [
    {
      "constant": false,
      "inputs": [],
      "name": "TheDiary",
      "outputs": [],
      "payable": false,
      "stateMutability": "nonpayable",
      "type": "function"
    },
    {
      "constant": false,
      "inputs": [
        {
          "internalType": "string",
          "name": "content",
          "type": "string"
        }
      ],
      "name": "addEntry",
      "outputs": [
        {
          "internalType": "bool",
          "name": "success",
          "type": "bool"
        }
      ],
      "payable": false,
      "stateMutability": "nonpayable",
      "type": "function"
    },
    {
      "constant": false,
      "inputs": [
        {
          "internalType": "uint256",
          "name": "index",
          "type": "uint256"
        },
        {
          "internalType": "string",
          "name": "content",
          "type": "string"
        }
      ],
      "name": "setEntry",
      "outputs": [
        {
          "internalType": "bool",
          "name": "success",
          "type": "bool"
        }
      ],
      "payable": false,
      "stateMutability": "nonpayable",
      "type": "function"
    },
    {
      "constant": true,
      "inputs": [
        {
          "internalType": "uint256",
          "name": "index",
          "type": "uint256"
        }
      ],
      "name": "getEntry",
      "outputs": [
        {
          "internalType": "string",
          "name": "content",
          "type": "string"
        }
      ],
      "payable": false,
      "stateMutability": "view",
      "type": "function"
    },
    {
      "constant": true,
      "inputs": [],
      "name": "getEntries",
      "outputs": [
        {
          "internalType": "string",
          "name": "allEntries",
          "type": "string"
        }
      ],
      "payable": false,
      "stateMutability": "view",
      "type": "function"
    },
    {
      "constant": true,
      "inputs": [],
      "name": "getTestPhrase",
      "outputs": [
        {
          "internalType": "string",
          "name": "phrase",
          "type": "string"
        }
      ],
      "payable": false,
      "stateMutability": "view",
      "type": "function"
    },
    {
      "constant": true,
      "inputs": [],
      "name": "getOwner",
      "outputs": [
        {
          "internalType": "address",
          "name": "ownerAddress",
          "type": "address"
        }
      ],
      "payable": false,
      "stateMutability": "view",
      "type": "function"
    },
    {
      "constant": false,
      "inputs": [],
      "name": "kill",
      "outputs": [],
      "payable": false,
      "stateMutability": "nonpayable",
      "type": "function"
    }
  ],
  "bytecode": "0x608060405234801561001057600080fd5b50610ca6806100206000396000f3fe608060405234801561001057600080fd5b50600436106100885760003560e01c80637b0cb2331161005b5780637b0cb23314610270578063893d20e81461027a578063bae78d7b146102c4578063cdb770db1461036b57610088565b806317be85c31461008d57806317ce42bd146101105780632c588770146101e357806341c0e1b514610266575b600080fd5b610095610448565b6040518080602001828103825283818151815260200191508051906020019080838360005b838110156100d55780820151818401526020810190506100ba565b50505050905090810190601f1680156101025780820380516001836020036101000a031916815260200191505b509250505060405180910390f35b6101c96004803603602081101561012657600080fd5b810190808035906020019064010000000081111561014357600080fd5b82018360208201111561015557600080fd5b8035906020019184600183028401116401000000008311171561017757600080fd5b91908080601f016020809104026020016040519081016040528093929190818152602001838380828437600081840152601f19601f8201169050808301925050505050505091929192905050506106c2565b604051808215151515815260200191505060405180910390f35b6101eb61076a565b6040518080602001828103825283818151815260200191508051906020019080838360005b8381101561022b578082015181840152602081019050610210565b50505050905090810190601f1680156102585780820380516001836020036101000a031916815260200191505b509250505060405180910390f35b61026e61080c565b005b61027861087c565b005b610282610912565b604051808273ffffffffffffffffffffffffffffffffffffffff1673ffffffffffffffffffffffffffffffffffffffff16815260200191505060405180910390f35b6102f0600480360360208110156102da57600080fd5b810190808035906020019092919050505061093b565b6040518080602001828103825283818151815260200191508051906020019080838360005b83811015610330578082015181840152602081019050610315565b50505050905090810190601f16801561035d5780820380516001836020036101000a031916815260200191505b509250505060405180910390f35b61042e6004803603604081101561038157600080fd5b8101908080359060200190929190803590602001906401000000008111156103a857600080fd5b8201836020820111156103ba57600080fd5b803590602001918460018302840111640100000000831117156103dc57600080fd5b91908080601f016020809104026020016040519081016040528093929190818152602001838380828437600081840152601f19601f8201169050808301925050505050505091929192905050506109f3565b604051808215151515815260200191505060405180910390f35b60606000600354141561046c576040518060200160405280600081525090506106bf565b600080905060008090505b6003548110156104c05760016002600083815260200190815260200160002060000180546001816001161561010002031660029004905083010191508080600101915050610477565b506060816040519080825280601f01601f1916602001820160405280156104f65781602001600182028038833980820191505090505b509050600080905060008090505b6003548110156106b7576060600260008381526020019081526020016000206000018054600181600116156101000203166002900480601f0160208091040260200160405190810160405280929190818152602001828054600181600116156101000203166002900480156105ba5780601f1061058f576101008083540402835291602001916105ba565b820191906000526020600020905b81548152906001019060200180831161059d57829003601f168201915b5050505050905060008090505b8151811015610637578181815181106105dc57fe5b602001015160f81c60f81b8585815181106105f357fe5b60200101907effffffffffffffffffffffffffffffffffffffffffffffffffffffffffffff1916908160001a905350838060010194505080806001019150506105c7565b5060016003540382146106a9577f2c0000000000000000000000000000000000000000000000000000000000000084848151811061067157fe5b60200101907effffffffffffffffffffffffffffffffffffffffffffffffffffffffffffff1916908160001a90535082806001019350505b508080600101915050610504565b829450505050505b90565b60008060009054906101000a900473ffffffffffffffffffffffffffffffffffffffff1673ffffffffffffffffffffffffffffffffffffffff163373ffffffffffffffffffffffffffffffffffffffff16146107215760009050610765565b81600260006003548152602001908152602001600020600001908051906020019061074d929190610bcc565b50600360008154809291906001019190505550600190505b919050565b606060018054600181600116156101000203166002900480601f0160208091040260200160405190810160405280929190818152602001828054600181600116156101000203166002900480156108025780601f106107d757610100808354040283529160200191610802565b820191906000526020600020905b8154815290600101906020018083116107e557829003601f168201915b5050505050905090565b6000809054906101000a900473ffffffffffffffffffffffffffffffffffffffff1673ffffffffffffffffffffffffffffffffffffffff163373ffffffffffffffffffffffffffffffffffffffff16141561087a573373ffffffffffffffffffffffffffffffffffffffff16ff5b565b336000806101000a81548173ffffffffffffffffffffffffffffffffffffffff021916908373ffffffffffffffffffffffffffffffffffffffff16021790555060006003819055506040518060400160405280600881526020017f70617373776f72640000000000000000000000000000000000000000000000008152506001908051906020019061090f929190610bcc565b50565b60008060009054906101000a900473ffffffffffffffffffffffffffffffffffffffff16905090565b6060600260008381526020019081526020016000206000018054600181600116156101000203166002900480601f0160208091040260200160405190810160405280929190818152602001828054600181600116156101000203166002900480156109e75780601f106109bc576101008083540402835291602001916109e7565b820191906000526020600020905b8154815290600101906020018083116109ca57829003601f168201915b50505050509050919050565b60008060009054906101000a900473ffffffffffffffffffffffffffffffffffffffff1673ffffffffffffffffffffffffffffffffffffffff163373ffffffffffffffffffffffffffffffffffffffff1614610a525760009050610bc6565b6000600260008581526020019081526020016000209050806000016040516020018080602001828103825283818154600181600116156101000203166002900481526020019150805460018160011615610100020316600290048015610af95780601f10610ace57610100808354040283529160200191610af9565b820191906000526020600020905b815481529060010190602001808311610adc57829003601f168201915b50509250505060405160208183030381529060405280519060200120836040516020018080602001828103825283818151815260200191508051906020019080838360005b83811015610b59578082015181840152602081019050610b3e565b50505050905090810190601f168015610b865780820380516001836020036101000a031916815260200191505b50925050506040516020818303038152906040528051906020012014610bc05782816000019080519060200190610bbe929190610bcc565b505b60019150505b92915050565b828054600181600116156101000203166002900490600052602060002090601f016020900481019282601f10610c0d57805160ff1916838001178555610c3b565b82800160010185558215610c3b579182015b82811115610c3a578251825591602001919060010190610c1f565b5b509050610c489190610c4c565b5090565b610c6e91905b80821115610c6a576000816000905550600101610c52565b5090565b9056fea265627a7a723158200a4b87fdcb1d1d033b8dc12d11cea2c13d39ef1009fa1752ca4d43c618873f9164736f6c63430005100032",
  "source": "pragma solidity ^0.5.16;\n\ncontract Diary {\n  address payable private owner;\n  string private testPhrase;\n\n  struct Entry {\n    string content;\n  }\n\n  mapping (uint => Entry) private entries;\n  uint private numEntries;\n\n  // Constructor\n  function TheDiary(/*string encryptedTestPhrase*/) public {\n    owner = msg.sender;\n    numEntries = 0;\n    testPhrase = \"password\";\n  }\n\n  function addEntry(string memory content) public returns (bool success) {\n    if (msg.sender != owner) \n      return false;\n    entries[numEntries].content = content;\n    numEntries++;\n    return true;\n  }\n\n  function setEntry(uint index, string memory content) public returns (bool success) {\n    if (msg.sender != owner) return false;\n\n    Entry storage entry = entries[index];\n\n    if (keccak256(abi.encode(content)) != keccak256(abi.encode(entry.content))) {\n      entry.content = content;\n    }\n\n    return true;\n  }\n\n  function getEntry(uint index) public view returns (string memory content) {\n    content = entries[index].content;\n  }\n\n  function getEntries() public view returns (string memory allEntries) {\n    if (numEntries == 0) return '';\n\n    uint totalLength = 0;\n    for (uint i=0; i < numEntries; i++) {\n      totalLength = totalLength + bytes(entries[i].content).length + 1;\n    }\n\n    bytes memory result = bytes(new string(totalLength));\n    uint counter = 0;\n    uint i;\n    for (i=0; i < numEntries; i++) {\n      bytes memory content = bytes(entries[i].content);\n      for (uint x=0; x < content.length; x++) {\n        result[counter] = content[x];\n        counter++;\n      }\n\n      if (i != (numEntries - 1)) {\n        result[counter] = byte(',');\n        counter++;\n      }\n    }\n\n    return string(result);\n  }\n\n  function getTestPhrase() public view returns (string memory phrase) {\n    return testPhrase;\n  }\n\n  function getOwner() public view returns (address ownerAddress) {\n    return owner;\n  }\n\n  function kill() public {\n    if (msg.sender == owner) selfdestruct(msg.sender);\n  }\n}",
  "sourcePath": "/Users/doviethoang/Github/Et_watch/contracts/Diary.sol",
  "compiler": {
    "name": "solc",
    "version": "0.5.16+commit.9c3226ce.Emscripten.clang"
  },
  "schemaVersion": "3.3.4",
  "updatedAt": "2021-04-16T08:20:03.875Z",
  "networkType": "ethereum",
  "devdoc": {
    "methods": {}
  },
  "userdoc": {
    "methods": {}
  }
}