{
  "contractName": "MetaCoin",
  "abi": [
    {
      "anonymous": false,
      "inputs": [
        {
          "indexed": true,
          "internalType": "address",
          "name": "_from",
          "type": "address"
        },
        {
          "indexed": true,
          "internalType": "address",
          "name": "_to",
          "type": "address"
        },
        {
          "indexed": false,
          "internalType": "uint256",
          "name": "_value",
          "type": "uint256"
        }
      ],
      "name": "Transfer",
      "type": "event"
    },
    {
      "constant": false,
      "inputs": [],
      "name": "theMetaCoin",
      "outputs": [],
      "payable": false,
      "stateMutability": "nonpayable",
      "type": "function"
    },
    {
      "constant": false,
      "inputs": [
        {
          "internalType": "address",
          "name": "receiver",
          "type": "address"
        },
        {
          "internalType": "uint256",
          "name": "amount",
          "type": "uint256"
        }
      ],
      "name": "sendCoin",
      "outputs": [
        {
          "internalType": "bool",
          "name": "sufficient",
          "type": "bool"
        }
      ],
      "payable": false,
      "stateMutability": "nonpayable",
      "type": "function"
    },
    {
      "constant": true,
      "inputs": [
        {
          "internalType": "address",
          "name": "addr",
          "type": "address"
        }
      ],
      "name": "getBalanceInEth",
      "outputs": [
        {
          "internalType": "uint256",
          "name": "",
          "type": "uint256"
        }
      ],
      "payable": false,
      "stateMutability": "view",
      "type": "function"
    },
    {
      "constant": true,
      "inputs": [
        {
          "internalType": "address",
          "name": "addr",
          "type": "address"
        }
      ],
      "name": "getBalance",
      "outputs": [
        {
          "internalType": "uint256",
          "name": "",
          "type": "uint256"
        }
      ],
      "payable": false,
      "stateMutability": "view",
      "type": "function"
    }
  ],
  "bytecode": "0x608060405234801561001057600080fd5b50610432806100206000396000f3fe608060405234801561001057600080fd5b506004361061004c5760003560e01c8063785e0556146100515780637bd703e81461005b57806390b98a11146100b3578063f8b2cb4f14610119575b600080fd5b610059610171565b005b61009d6004803603602081101561007157600080fd5b81019080803573ffffffffffffffffffffffffffffffffffffffff1690602001909291905050506101b8565b6040518082815260200191505060405180910390f35b6100ff600480360360408110156100c957600080fd5b81019080803573ffffffffffffffffffffffffffffffffffffffff1690602001909291908035906020019092919050505061025c565b604051808215151515815260200191505060405180910390f35b61015b6004803603602081101561012f57600080fd5b81019080803573ffffffffffffffffffffffffffffffffffffffff1690602001909291905050506103b5565b6040518082815260200191505060405180910390f35b6127106000803273ffffffffffffffffffffffffffffffffffffffff1673ffffffffffffffffffffffffffffffffffffffff16815260200190815260200160002081905550565b600073__ConvertLib____________________________6396e4ee3d6101dd846103b5565b60026040518363ffffffff1660e01b8152600401808381526020018281526020019250505060206040518083038186803b15801561021a57600080fd5b505af415801561022e573d6000803e3d6000fd5b505050506040513d602081101561024457600080fd5b81019080805190602001909291905050509050919050565b6000816000803373ffffffffffffffffffffffffffffffffffffffff1673ffffffffffffffffffffffffffffffffffffffff1681526020019081526020016000205410156102ad57600090506103af565b816000803373ffffffffffffffffffffffffffffffffffffffff1673ffffffffffffffffffffffffffffffffffffffff16815260200190815260200160002060008282540392505081905550816000808573ffffffffffffffffffffffffffffffffffffffff1673ffffffffffffffffffffffffffffffffffffffff168152602001908152602001600020600082825401925050819055508273ffffffffffffffffffffffffffffffffffffffff163373ffffffffffffffffffffffffffffffffffffffff167fddf252ad1be2c89b69c2b068fc378daa952ba7f163c4a11628f55a4df523b3ef846040518082815260200191505060405180910390a3600190505b92915050565b60008060008373ffffffffffffffffffffffffffffffffffffffff1673ffffffffffffffffffffffffffffffffffffffff16815260200190815260200160002054905091905056fea265627a7a72315820e22b181bcbb71de7e20a03a6d439281ce68f15fb6ed9ac1e70645cec9c67dc0164736f6c63430005100032",
  "source": "pragma solidity ^0.5.16;\r\n\r\nimport \"./ConvertLib.sol\";\r\n\r\n// This is just a simple example of a coin-like contract.\r\n// It is not standards compatible and cannot be expected to talk to other\r\n// coin/token contracts. If you want to create a standards-compliant\r\n// token, see: https://github.com/ConsenSys/Tokens. Cheers!\r\n\r\ncontract MetaCoin {\r\n\tmapping (address => uint) balances;\r\n\r\n\tevent Transfer(address indexed _from, address indexed _to, uint256 _value);\r\n\r\n\tfunction theMetaCoin() public {\r\n\t\tbalances[tx.origin] = 10000;\r\n\t}\r\n\r\n\tfunction sendCoin(address receiver, uint amount) public returns(bool sufficient) {\r\n\t\tif (balances[msg.sender] < amount) return false;\r\n\t\tbalances[msg.sender] -= amount;\r\n\t\tbalances[receiver] += amount;\r\n\t\temit Transfer(msg.sender, receiver, amount);\r\n\t\treturn true;\r\n\t}\r\n\r\n\tfunction getBalanceInEth(address addr) public view returns(uint){\r\n\t\treturn ConvertLib.convert(getBalance(addr),2);\r\n\t}\r\n\r\n\tfunction getBalance(address addr) public view returns(uint) {\r\n\t\treturn balances[addr];\r\n\t}\r\n}\r\n",
  "sourcePath": "D:/My Workspace/Et_watch/contracts/MetaCoin.sol",
  "compiler": {
    "name": "solc",
    "version": "0.5.16+commit.9c3226ce.Emscripten.clang"
  },
  "schemaVersion": "3.3.4",
  "updatedAt": "2021-04-17T11:02:21.267Z",
  "networkType": "ethereum",
  "devdoc": {
    "methods": {}
  },
  "userdoc": {
    "methods": {}
  }
}