{
  "contractName": "Diary",
  "abi": [
    {
      "constant": true,
      "inputs": [],
      "name": "getNumEntries",
      "outputs": [
        {
          "internalType": "uint256",
          "name": "",
          "type": "uint256"
        }
      ],
      "payable": false,
      "stateMutability": "view",
      "type": "function"
    },
    {
      "constant": false,
      "inputs": [],
      "name": "theDiary",
      "outputs": [],
      "payable": false,
      "stateMutability": "nonpayable",
      "type": "function"
    },
    {
      "constant": false,
      "inputs": [
        {
          "internalType": "string",
          "name": "content",
          "type": "string"
        }
      ],
      "name": "addEntry",
      "outputs": [
        {
          "internalType": "bool",
          "name": "success",
          "type": "bool"
        }
      ],
      "payable": false,
      "stateMutability": "nonpayable",
      "type": "function"
    },
    {
      "constant": false,
      "inputs": [
        {
          "internalType": "uint256",
          "name": "index",
          "type": "uint256"
        },
        {
          "internalType": "string",
          "name": "content",
          "type": "string"
        }
      ],
      "name": "setEntry",
      "outputs": [
        {
          "internalType": "bool",
          "name": "success",
          "type": "bool"
        }
      ],
      "payable": false,
      "stateMutability": "nonpayable",
      "type": "function"
    },
    {
      "constant": true,
      "inputs": [
        {
          "internalType": "uint256",
          "name": "index",
          "type": "uint256"
        }
      ],
      "name": "getEntry",
      "outputs": [
        {
          "internalType": "string",
          "name": "content",
          "type": "string"
        }
      ],
      "payable": false,
      "stateMutability": "view",
      "type": "function"
    },
    {
      "constant": true,
      "inputs": [],
      "name": "getEntries",
      "outputs": [
        {
          "internalType": "string",
          "name": "allEntries",
          "type": "string"
        }
      ],
      "payable": false,
      "stateMutability": "view",
      "type": "function"
    },
    {
      "constant": true,
      "inputs": [],
      "name": "getTestPhrase",
      "outputs": [
        {
          "internalType": "string",
          "name": "phrase",
          "type": "string"
        }
      ],
      "payable": false,
      "stateMutability": "view",
      "type": "function"
    },
    {
      "constant": true,
      "inputs": [],
      "name": "getOwner",
      "outputs": [
        {
          "internalType": "address",
          "name": "ownerAddress",
          "type": "address"
        }
      ],
      "payable": false,
      "stateMutability": "view",
      "type": "function"
    },
    {
      "constant": false,
      "inputs": [],
      "name": "kill",
      "outputs": [],
      "payable": false,
      "stateMutability": "nonpayable",
      "type": "function"
    }
  ],
  "bytecode": "0x608060405234801561001057600080fd5b50610cd9806100206000396000f3fe608060405234801561001057600080fd5b50600436106100935760003560e01c806341c0e1b51161006657806341c0e1b51461028f578063893d20e8146102995780638a0c9629146102e3578063bae78d7b146102ed578063cdb770db1461039457610093565b806309e2d1a61461009857806317be85c3146100b657806317ce42bd146101395780632c5887701461020c575b600080fd5b6100a0610471565b6040518082815260200191505060405180910390f35b6100be61047b565b6040518080602001828103825283818151815260200191508051906020019080838360005b838110156100fe5780820151818401526020810190506100e3565b50505050905090810190601f16801561012b5780820380516001836020036101000a031916815260200191505b509250505060405180910390f35b6101f26004803603602081101561014f57600080fd5b810190808035906020019064010000000081111561016c57600080fd5b82018360208201111561017e57600080fd5b803590602001918460018302840111640100000000831117156101a057600080fd5b91908080601f016020809104026020016040519081016040528093929190818152602001838380828437600081840152601f19601f8201169050808301925050505050505091929192905050506106f5565b604051808215151515815260200191505060405180910390f35b61021461079d565b6040518080602001828103825283818151815260200191508051906020019080838360005b83811015610254578082015181840152602081019050610239565b50505050905090810190601f1680156102815780820380516001836020036101000a031916815260200191505b509250505060405180910390f35b61029761083f565b005b6102a16108af565b604051808273ffffffffffffffffffffffffffffffffffffffff1673ffffffffffffffffffffffffffffffffffffffff16815260200191505060405180910390f35b6102eb6108d8565b005b6103196004803603602081101561030357600080fd5b810190808035906020019092919050505061096e565b6040518080602001828103825283818151815260200191508051906020019080838360005b8381101561035957808201518184015260208101905061033e565b50505050905090810190601f1680156103865780820380516001836020036101000a031916815260200191505b509250505060405180910390f35b610457600480360360408110156103aa57600080fd5b8101908080359060200190929190803590602001906401000000008111156103d157600080fd5b8201836020820111156103e357600080fd5b8035906020019184600183028401116401000000008311171561040557600080fd5b91908080601f016020809104026020016040519081016040528093929190818152602001838380828437600081840152601f19601f820116905080830192505050505050509192919290505050610a26565b604051808215151515815260200191505060405180910390f35b6000600354905090565b60606000600354141561049f576040518060200160405280600081525090506106f2565b600080905060008090505b6003548110156104f357600160026000838152602001908152602001600020600001805460018160011615610100020316600290049050830101915080806001019150506104aa565b506060816040519080825280601f01601f1916602001820160405280156105295781602001600182028038833980820191505090505b509050600080905060008090505b6003548110156106ea576060600260008381526020019081526020016000206000018054600181600116156101000203166002900480601f0160208091040260200160405190810160405280929190818152602001828054600181600116156101000203166002900480156105ed5780601f106105c2576101008083540402835291602001916105ed565b820191906000526020600020905b8154815290600101906020018083116105d057829003601f168201915b5050505050905060008090505b815181101561066a5781818151811061060f57fe5b602001015160f81c60f81b85858151811061062657fe5b60200101907effffffffffffffffffffffffffffffffffffffffffffffffffffffffffffff1916908160001a905350838060010194505080806001019150506105fa565b5060016003540382146106dc577f2c000000000000000000000000000000000000000000000000000000000000008484815181106106a457fe5b60200101907effffffffffffffffffffffffffffffffffffffffffffffffffffffffffffff1916908160001a90535082806001019350505b508080600101915050610537565b829450505050505b90565b60008060009054906101000a900473ffffffffffffffffffffffffffffffffffffffff1673ffffffffffffffffffffffffffffffffffffffff163373ffffffffffffffffffffffffffffffffffffffff16146107545760009050610798565b816002600060035481526020019081526020016000206000019080519060200190610780929190610bff565b50600360008154809291906001019190505550600190505b919050565b606060018054600181600116156101000203166002900480601f0160208091040260200160405190810160405280929190818152602001828054600181600116156101000203166002900480156108355780601f1061080a57610100808354040283529160200191610835565b820191906000526020600020905b81548152906001019060200180831161081857829003601f168201915b5050505050905090565b6000809054906101000a900473ffffffffffffffffffffffffffffffffffffffff1673ffffffffffffffffffffffffffffffffffffffff163373ffffffffffffffffffffffffffffffffffffffff1614156108ad573373ffffffffffffffffffffffffffffffffffffffff16ff5b565b60008060009054906101000a900473ffffffffffffffffffffffffffffffffffffffff16905090565b336000806101000a81548173ffffffffffffffffffffffffffffffffffffffff021916908373ffffffffffffffffffffffffffffffffffffffff16021790555060006003819055506040518060400160405280600881526020017f70617373776f72640000000000000000000000000000000000000000000000008152506001908051906020019061096b929190610bff565b50565b6060600260008381526020019081526020016000206000018054600181600116156101000203166002900480601f016020809104026020016040519081016040528092919081815260200182805460018160011615610100020316600290048015610a1a5780601f106109ef57610100808354040283529160200191610a1a565b820191906000526020600020905b8154815290600101906020018083116109fd57829003601f168201915b50505050509050919050565b60008060009054906101000a900473ffffffffffffffffffffffffffffffffffffffff1673ffffffffffffffffffffffffffffffffffffffff163373ffffffffffffffffffffffffffffffffffffffff1614610a855760009050610bf9565b6000600260008581526020019081526020016000209050806000016040516020018080602001828103825283818154600181600116156101000203166002900481526020019150805460018160011615610100020316600290048015610b2c5780601f10610b0157610100808354040283529160200191610b2c565b820191906000526020600020905b815481529060010190602001808311610b0f57829003601f168201915b50509250505060405160208183030381529060405280519060200120836040516020018080602001828103825283818151815260200191508051906020019080838360005b83811015610b8c578082015181840152602081019050610b71565b50505050905090810190601f168015610bb95780820380516001836020036101000a031916815260200191505b50925050506040516020818303038152906040528051906020012014610bf35782816000019080519060200190610bf1929190610bff565b505b60019150505b92915050565b828054600181600116156101000203166002900490600052602060002090601f016020900481019282601f10610c4057805160ff1916838001178555610c6e565b82800160010185558215610c6e579182015b82811115610c6d578251825591602001919060010190610c52565b5b509050610c7b9190610c7f565b5090565b610ca191905b80821115610c9d576000816000905550600101610c85565b5090565b9056fea265627a7a72315820d26c48929cfa6c7caf3c06e68e17943a09ac260c8be7c8a895c30d787400203564736f6c63430005100032",
  "source": "pragma solidity ^0.5.16;\n\ncontract Diary {\n  address payable private owner;\n  string private testPhrase;\n\n  struct Entry {\n    string content;\n  }\n\n  mapping (uint => Entry) private entries;\n  uint private numEntries;\n\n  function getNumEntries() public view returns (uint){\n    return numEntries;\n  }\n\n  // Constructor\n  function theDiary(/*string encryptedTestPhrase*/) public {\n    owner = msg.sender;\n    numEntries = 0;\n    testPhrase = \"password\";\n  }\n\n  function addEntry(string memory content) public returns (bool success) {\n    if (msg.sender != owner) \n      return false;\n    entries[numEntries].content = content;\n    numEntries++;\n    return true;\n  }\n\n  function setEntry(uint index, string memory content) public returns (bool success) {\n    if (msg.sender != owner) return false;\n\n    Entry storage entry = entries[index];\n\n    if (keccak256(abi.encode(content)) != keccak256(abi.encode(entry.content))) {\n      entry.content = content;\n    }\n\n    return true;\n  }\n\n  function getEntry(uint index) public view returns (string memory content) {\n    content = entries[index].content;\n  }\n\n  function getEntries() public view returns (string memory allEntries) {\n    if (numEntries == 0) return '';\n\n    uint totalLength = 0;\n    for (uint i=0; i < numEntries; i++) {\n      totalLength = totalLength + bytes(entries[i].content).length + 1;\n    }\n\n    bytes memory result = bytes(new string(totalLength));\n    uint counter = 0;\n    uint i;\n    for (i=0; i < numEntries; i++) {\n      bytes memory content = bytes(entries[i].content);\n      for (uint x=0; x < content.length; x++) {\n        result[counter] = content[x];\n        counter++;\n      }\n\n      if (i != (numEntries - 1)) {\n        result[counter] = byte(',');\n        counter++;\n      }\n    }\n\n    return string(result);\n  }\n\n  function getTestPhrase() public view returns (string memory phrase) {\n    return testPhrase;\n  }\n\n  function getOwner() public view returns (address ownerAddress) {\n    return owner;\n  }\n\n  function kill() public {\n    if (msg.sender == owner) selfdestruct(msg.sender);\n  }\n}",
  "sourcePath": "/Users/doviethoang/Github/Et_watch/contracts/Diary.sol",
  "compiler": {
    "name": "solc",
    "version": "0.5.16+commit.9c3226ce.Emscripten.clang"
  },
  "schemaVersion": "3.3.4",
  "updatedAt": "2021-04-17T12:45:59.081Z",
  "networkType": "ethereum",
  "devdoc": {
    "methods": {}
  },
  "userdoc": {
    "methods": {}
  }
}